{
  "contractName": "DapLotto",
  "abi": [
    {
      "constant": true,
      "inputs": [],
      "name": "numberOfBets",
      "outputs": [
        {
          "name": "",
          "type": "uint256"
        }
      ],
      "payable": false,
      "stateMutability": "view",
      "type": "function"
    },
    {
      "constant": true,
      "inputs": [
        {
          "name": "",
          "type": "address"
        }
      ],
      "name": "playerTicketsCount",
      "outputs": [
        {
          "name": "",
          "type": "uint256"
        }
      ],
      "payable": false,
      "stateMutability": "view",
      "type": "function"
    },
    {
      "constant": true,
      "inputs": [],
      "name": "maxAmountOfTickets",
      "outputs": [
        {
          "name": "",
          "type": "uint256"
        }
      ],
      "payable": false,
      "stateMutability": "view",
      "type": "function"
    },
    {
      "constant": true,
      "inputs": [],
      "name": "maxAmountOfBets",
      "outputs": [
        {
          "name": "",
          "type": "uint256"
        }
      ],
      "payable": false,
      "stateMutability": "view",
      "type": "function"
    },
    {
      "constant": true,
      "inputs": [],
      "name": "range",
      "outputs": [
        {
          "name": "",
          "type": "uint256"
        }
      ],
      "payable": false,
      "stateMutability": "view",
      "type": "function"
    },
    {
      "constant": true,
      "inputs": [
        {
          "name": "",
          "type": "uint256"
        }
      ],
      "name": "ticketTypes",
      "outputs": [
        {
          "name": "number",
          "type": "uint256"
        },
        {
          "name": "totalTickets",
          "type": "uint256"
        }
      ],
      "payable": false,
      "stateMutability": "view",
      "type": "function"
    },
    {
      "constant": true,
      "inputs": [],
      "name": "totalBet",
      "outputs": [
        {
          "name": "",
          "type": "uint256"
        }
      ],
      "payable": false,
      "stateMutability": "view",
      "type": "function"
    },
    {
      "inputs": [
        {
          "name": "_minimumBet",
          "type": "uint256"
        },
        {
          "name": "_maxAmountOfBets",
          "type": "uint256"
        }
      ],
      "payable": false,
      "stateMutability": "nonpayable",
      "type": "constructor"
    },
    {
      "anonymous": false,
      "inputs": [
        {
          "indexed": false,
          "name": "winner",
          "type": "address"
        },
        {
          "indexed": false,
          "name": "winningNumber",
          "type": "uint256"
        }
      ],
      "name": "Win",
      "type": "event"
    },
    {
      "constant": false,
      "inputs": [
        {
          "name": "number",
          "type": "uint256"
        }
      ],
      "name": "pickNumber",
      "outputs": [],
      "payable": true,
      "stateMutability": "payable",
      "type": "function"
    },
    {
      "constant": true,
      "inputs": [
        {
          "name": "player",
          "type": "address"
        }
      ],
      "name": "canPlay",
      "outputs": [
        {
          "name": "",
          "type": "bool"
        }
      ],
      "payable": false,
      "stateMutability": "view",
      "type": "function"
    },
    {
      "constant": false,
      "inputs": [],
      "name": "draw",
      "outputs": [
        {
          "name": "",
          "type": "uint256"
        },
        {
          "name": "",
          "type": "address[]"
        }
      ],
      "payable": false,
      "stateMutability": "nonpayable",
      "type": "function"
    }
  ],
  "bytecode": "0x608060405267016345785d8a000060015560006002556000600355600560045534801561002b57600080fd5b50604051604080610c048339810180604052810190808051906020019092919080519060200190929190505050336000806101000a81548173ffffffffffffffffffffffffffffffffffffffff021916908373ffffffffffffffffffffffffffffffffffffffff16021790555060008211156100a957816001819055505b60008111156100ba57806004819055505b5050610b39806100cb6000396000f3006080604052600436106100a4576000357c0100000000000000000000000000000000000000000000000000000000900463ffffffff1680630823d5f3146100a95780630eecae2114610104578063214fa2cc146101775780632ca8c6d3146101975780636549e874146101c2578063bf9130f814610219578063e08a96cd14610244578063e97206a91461026f578063e9dbebce1461029a578063fe5e1853146102e2575b600080fd5b3480156100b557600080fd5b506100ea600480360381019080803573ffffffffffffffffffffffffffffffffffffffff16906020019092919050505061030d565b604051808215151515815260200191505060405180910390f35b34801561011057600080fd5b50610119610359565b6040518083815260200180602001828103825283818151815260200191508051906020019060200280838360005b83811015610162578082015181840152602081019050610147565b50505050905001935050505060405180910390f35b610195600480360381019080803590602001909291905050506103d8565b005b3480156101a357600080fd5b506101ac6105f1565b6040518082815260200191505060405180910390f35b3480156101ce57600080fd5b50610203600480360381019080803573ffffffffffffffffffffffffffffffffffffffff1690602001909291905050506105f7565b6040518082815260200191505060405180910390f35b34801561022557600080fd5b5061022e61060f565b6040518082815260200191505060405180910390f35b34801561025057600080fd5b50610259610614565b6040518082815260200191505060405180910390f35b34801561027b57600080fd5b5061028461061a565b6040518082815260200191505060405180910390f35b3480156102a657600080fd5b506102c56004803603810190808035906020019092919050505061061f565b604051808381526020018281526020019250505060405180910390f35b3480156102ee57600080fd5b506102f7610643565b6040518082815260200191505060405180910390f35b60006004600760008473ffffffffffffffffffffffffffffffffffffffff1673ffffffffffffffffffffffffffffffffffffffff16815260200190815260200160002054109050919050565b60006060600060606000809054906101000a900473ffffffffffffffffffffffffffffffffffffffff1673ffffffffffffffffffffffffffffffffffffffff163373ffffffffffffffffffffffffffffffffffffffff161415156103bc57600080fd5b6103c4610649565b809250819350505081819350935050509091565b6000600182101580156103ec5750600a8211155b15156103f757600080fd5b600154341015151561040857600080fd5b6104113361030d565b151561041c57600080fd5b6006600083815260200190815260200160002090506060604051908101604052803373ffffffffffffffffffffffffffffffffffffffff168152602001348152602001838152508160020160008360010154815260200190815260200160002060008201518160000160006101000a81548173ffffffffffffffffffffffffffffffffffffffff021916908373ffffffffffffffffffffffffffffffffffffffff16021790555060208201518160010155604082015181600201559050508060010160008154809291906001019190505550600760003373ffffffffffffffffffffffffffffffffffffffff1673ffffffffffffffffffffffffffffffffffffffff1681526020019081526020016000206000815480929190600101919050555061054633610672565b15156105b35760053390806001815401808255809150509060018203906000526020600020016000909192909190916101000a81548173ffffffffffffffffffffffffffffffffffffffff021916908373ffffffffffffffffffffffffffffffffffffffff160217905550505b346002600082825401925050819055506003600081548092919060010191905055506004546003541015156105ed576105ea610649565b50505b5050565b60035481565b60076020528060005260406000206000915090505481565b600481565b60045481565b600a81565b60066020528060005260406000206000915090508060000154908060010154905082565b60025481565b6000606060006060610659610715565b91506106648261074d565b905081819350935050509091565b600080600090505b60058054905081101561070a578273ffffffffffffffffffffffffffffffffffffffff166005828154811015156106ad57fe5b9060005260206000200160009054906101000a900473ffffffffffffffffffffffffffffffffffffffff1673ffffffffffffffffffffffffffffffffffffffff1614156106fd576001915061070f565b808060010191505061067a565b600091505b50919050565b60006001600a4244604051808381526020018281526020019250505060405180910390206001900481151561074657fe5b0601905090565b606060006060600080600060066000888152602001908152602001600020945084600101546040519080825280602002602001820160405280156107a05781602001602082028038833980820191505090505b509350600092505b84600101548310156108b25784600201600084815260200190815260200160002060000160009054906101000a900473ffffffffffffffffffffffffffffffffffffffff1691508184848151811015156107fe57fe5b9060200190602002019073ffffffffffffffffffffffffffffffffffffffff16908173ffffffffffffffffffffffffffffffffffffffff16815250507f6747c18256028de8cd2fa276e75d6b4193ac34c1b55fa8e71797ac132d32ad398288604051808373ffffffffffffffffffffffffffffffffffffffff1673ffffffffffffffffffffffffffffffffffffffff1681526020018281526020019250505060405180910390a182806001019350506107a8565b6000845111156109ac5783516002548115156108ca57fe5b0490506108d56109c2565b6000600281905550600092505b84600101548310156109a757600073ffffffffffffffffffffffffffffffffffffffff16848481518110151561091457fe5b9060200190602002015173ffffffffffffffffffffffffffffffffffffffff1614151561099a57838381518110151561094957fe5b9060200190602002015173ffffffffffffffffffffffffffffffffffffffff166108fc829081150290604051600060405180830381858888f19350505050158015610998573d6000803e3d6000fd5b505b82806001019350506108e2565b6109b5565b6109b46109c2565b5b8395505050505050919050565b6000600190505b600a81111515610a0657600660008281526020019081526020016000206000808201600090556001820160009055505080806001019150506109c9565b600090505b600580549050811015610aa15760076000600583815481101515610a2b57fe5b9060005260206000200160009054906101000a900473ffffffffffffffffffffffffffffffffffffffff1673ffffffffffffffffffffffffffffffffffffffff1673ffffffffffffffffffffffffffffffffffffffff168152602001908152602001600020600090558080600101915050610a0b565b6000600581610ab09190610abc565b50600060038190555050565b815481835581811115610ae357818360005260206000209182019101610ae29190610ae8565b5b505050565b610b0a91905b80821115610b06576000816000905550600101610aee565b5090565b905600a165627a7a72305820809f28cbd44ffb93c9b06600faf06b5494e2f029d89bdc928bd7b30a21ddf1dd0029",
  "source": "  pragma solidity ^0.4.24;\n\n  contract DapLotto {\n      struct Ticket {\n          address owner;\n          uint amount;\n          uint number;\n      }\n\n      struct TicketType {\n          uint number;\n          uint totalTickets;\n          mapping(uint => Ticket) tickets;\n      }\n\n      event Win(\n          address winner,\n          uint winningNumber\n      );\n\n      address owner;\n      uint minimumBet = 100 finney;\n      uint public totalBet = 0;\n      uint public numberOfBets = 0;\n      uint public maxAmountOfBets = 5;\n      uint public constant maxAmountOfTickets = 4;\n      uint public constant range = 10;\n      address[] players;\n      mapping(uint => TicketType) public ticketTypes;\n      mapping(address => uint) public playerTicketsCount;\n\n      modifier onlyOwner {\n          require(msg.sender == owner);\n          _;\n      }\n\n      function DapLotto(uint _minimumBet, uint _maxAmountOfBets) public {\n          owner = msg.sender;\n\n          if (_minimumBet > 0) {\n              minimumBet = _minimumBet;\n          }\n\n          if (_maxAmountOfBets > 0) {\n              maxAmountOfBets = _maxAmountOfBets;\n          }\n      }\n\n      function pickNumber(uint number) public payable {\n          require(number >= 1 && number <= range);\n          require(msg.value >= minimumBet);\n          require(canPlay(msg.sender));\n\n          TicketType storage ticketType = ticketTypes[number];\n\n          ticketType.tickets[ticketType.totalTickets] = Ticket({\n              owner: msg.sender,\n              amount: msg.value,\n              number: number\n          });\n          ticketType.totalTickets++;\n          playerTicketsCount[msg.sender]++;\n\n          if (!playerExists(msg.sender)) {\n              players.push(msg.sender);\n          }\n\n          totalBet += msg.value;\n          numberOfBets++;\n\n          if (numberOfBets >= maxAmountOfBets) {\n              generateWinner();\n          }\n      }\n\n      function canPlay(address player) public view returns (bool) {\n          return playerTicketsCount[player] < maxAmountOfTickets;\n      }\n\n      function draw() public onlyOwner returns (uint, address[]) {\n          uint winningNumber;\n          address[] memory winners;\n\n          (winningNumber, winners) = generateWinner();\n\n          return (winningNumber, winners);\n      }\n\n      function generateWinner() private returns (uint, address[]) {\n          uint winningNumber = generateRandomNumber();\n          address[] memory winners = distributePrizes(winningNumber);\n\n          return (winningNumber, winners);\n      }\n\n      function distributePrizes(uint winningNumber) private returns (address[]) {\n          TicketType storage ticketType = ticketTypes[winningNumber];\n          address[] memory winners = new address[](ticketType.totalTickets);\n\n          for (uint i = 0; i < ticketType.totalTickets; i++) {\n              address winner = ticketType.tickets[i].owner;\n              winners[i] = winner;\n              emit Win(winner, winningNumber);\n          }\n\n          if (winners.length > 0) {\n              uint winnerEtherAmount = totalBet / winners.length;\n\n              resetGame();\n              totalBet = 0;\n\n              for (i = 0; i < ticketType.totalTickets; i++) {\n                  if (winners[i] != address(0)) {\n                      winners[i].transfer(winnerEtherAmount);\n                  }\n              }\n          } else {\n              resetGame();\n          }\n\n          return winners;\n      }\n\n      function generateRandomNumber() private view returns (uint) {\n          return (uint(keccak256(block.timestamp, block.difficulty)) % range) + 1;\n      }\n\n      function playerExists(address player) private view returns (bool) {\n          for (uint i = 0; i < players.length; i++) {\n              if (players[i] == player) {\n                  return true;\n              }\n          }\n\n          return false;\n      }\n\n      function resetGame() private {\n          for (uint i = 1; i <= range; i++) {\n              delete ticketTypes[i];\n          }\n\n          for (i = 0; i < players.length; i++) {\n              delete playerTicketsCount[players[i]];\n          }\n\n          players.length = 0;\n          numberOfBets = 0;\n      }\n  }",
  "sourcePath": "/Users/aleksanderpavliuk/lotto/src/truffle/contracts/DapLotto.sol",
  "compiler": {
    "name": "solc",
    "version": "0.4.24+commit.e67f0147.Emscripten.clang"
  },
  "schemaVersion": "2.0.1",
  "updatedAt": "2018-09-13T15:00:44.223Z"
}